:1000000012C024C023C022C021C020C01FC01EC0F7
:100010001DC01CC01BC01AC019C018C017C016C014
:1000200015C014C013C011241FBECFE5D4E0DEBF3D
:10003000CDBF10E0A0E6B0E0E6E4F5E002C0059038
:100040000D92A239B107D9F7FCD17BC2D9CF80FF7D
:1000500002C0959A01C0959881FF02C0969A01C08E
:10006000969882FF02C0979A01C0979883FF02C0BA
:10007000C09A0895C0980895CF93C82FAB9A8295DF
:100080008F70E5DFAB98AB9A8C2FE1DFAB9887ECF4
:1000900090E00197F1F700C00000CF910895A99872
:1000A000EBCFA99AE9CFCF93DF93EC0101C0F9DF41
:1000B00089918111FCCFDF91CF910895613031F0AA
:1000C00050F0623029F0633041F404C0805C03C01A
:1000D000805F01C0805B8068E2CF089581E0DFDF50
:1000E0008FE39FE10197F1F700C00000089582E0DF
:1000F000D6DF8FE39FE10197F1F700C0000008957C
:10010000CF938D9A8E9A8F9AB89AA39AA19A8FE5D7
:100110009AEE0197F1F700C00000A998AB98C3E0F0
:10012000AB9A83E094DFAB988FE19EE40197F1F7FF
:1001300000C00000C150A1F7AB9A82E088DFAB9805
:100140008FE99FE00197F1F700C0000088E2A7DF88
:1001500088E0A5DF81E0A3DF8FE39FE10197F1F75E
:1001600000C0000086E09BDF8CE0CF9198CFCF935A
:10017000DF93D82F682F80E0A1DFC0E180E291DF1C
:10018000C150E1F76D2F80E0DF91CF9197CFCF93F2
:10019000DF93CDB7DEB7AB970FB6F894DEBF0FBED7
:1001A000CDBF19A21AA21BA21CA2FE01B59687E020
:1001B000DF011D928A95E9F760E2CE0101961CD11C
:1001C00048E050E0BE016F5F7F4FCE018196AAD11B
:1001D00065E670E0CE0101969AD1892B39F463E689
:1001E00070E0CE01019693D1892B59F0C19ABFEFEF
:1001F00023ED80E3B15020408040E1F700C00000D3
:1002000001C0C1986EE870E0CE01819675D166DFBD
:100210006EDF60E080E052DFCE01819644DF61E076
:1002200080E04CDF80E690E03EDFAB960FB6F894BE
:10023000DEBF0FBECDBFDF91CF910895CF93DF9387
:10024000CDB7DEB7A1970FB6F894DEBF0FBECDBF16
:1002500081E2E1E7F0E0DE01119601900D928A95CE
:10026000E1F760E2CE01019692D0A1960FB6F89424
:10027000DEBF0FBECDBFDF91CF910895C29840E1A0
:1002800020E030E097FF02C0C39A01C0C398220F5C
:10029000331FB4992160C59A880F991F00C000C010
:1002A0000000C598415071F7C29AC90108958CE2C7
:1002B00087BB84E088BB8AE0EFE3FCE93197F1F784
:1002C00000C000008150C1F780EE90ECD7DF87EDD1
:1002D00090E8D4DF8BEA92ECD1DF81E89AECCEDFB4
:1002E00080E090EECBDF80E098ECC8DF87EF94EC05
:1002F000C5CF477050E05469637028E0629FB00139
:10030000112420E2829FC00111249927682B792BA8
:10031000CA01862B972BB2CF8036910538F08034F6
:100320002FE0920728F08FE39FE002C080E690E084
:10033000906AA4CF873922E09207C8F09C0140E080
:1003400050E08831954150F460E678EA80E090E032
:10035000B8D0C90101978068966C08C06CEF72E450
:1003600085E090E08CD0C9010197966C87CF089505
:10037000877090E0986920E1629FB001112477278F
:10038000862B972B7BCFC298B49BFECF0895FF920C
:100390000F931F93CF93DF93182FF92E062F88E327
:1003A00092E86CDFF0DF8AEA98EB68DFECDF8AEA3C
:1003B00098EB64DFE8DF8AEA98EB60DFE4DF8DE248
:1003C00098EB5CDFE0DF84ED98EB58DFC12FDF2D89
:1003D00006C0D9DF2991822F90E0986B4FDF8C2FD8
:1003E000811B8017B0F3CFDF88E092E8DF91CF91D7
:1003F0001F910F91FF9042CFFF920F931F93CF93C6
:10040000DF93182FF92E062F88EC92E837DF81E86A
:100410009AEC34DF83E89AEC31DFC12FDF2D05C081
:10042000B2DF80E090EB2ADF89938C2F811B80174D
:10043000B8F388E092E8DF91CF911F910F91FF9080
:100440001DCFB99A34DF80E296E066DF44E061E0D8
:1004500084E04FDF80E09BE46DDF66E080E088DFD2
:100460004FDE80E007C0EFE3FCE93197F1F700C011
:1004700000008F5F8A30B8F38ADE80E0F4CFA1E21B
:100480001A2EAA1BBB1BFD010DC0AA1FBB1FEE1F0E
:10049000FF1FA217B307E407F50720F0A21BB30B59
:1004A000E40BF50B661F771F881F991F1A9469F7D5
:1004B00060957095809590959B01AC01BD01CF0131
:1004C0000895052E97FB16F4009406D057FD0CD026
:1004D000D6DF07FC09D07EF49095809570956195E4
:1004E0007F4F8F4F9F4F08955095409530952195A0
:1004F0003F4F4F4F5F4F0895FB01DC010D900020EF
:10050000E9F7119701900D920020E1F70895FC01A1
:100510008191861721F08823D9F79927089531977B
:10052000CF010895FB01DC014150504048F001909B
:100530000D920020C9F701C01D9241505040E0F7D4
:060540000895F894FFCFBE
:10054600646174612072656365697665642E2E2E1A
:100556000044696573206973742065696E203433BD
:10056600334D487A2054657374202121210A2020B6
:02057600200063
:00000001FF
