:1000000012C024C023C022C021C020C01FC01EC0F7
:100010001DC01CC01BC01AC019C018C017C016C014
:1000200015C014C013C011241FBECFE5D4E0DEBF3D
:10003000CDBF10E0A0E6B0E0E4E5FDE002C0059031
:100040000D92A237B107D9F731D582C6D9CFFC01BD
:10005000680F791F80E048E10FC0219198E0322FAE
:100060003827532F517030FD84278695513009F47D
:1000700080682695915099F7E617F70771F708956C
:10008000FB01318120E09081292B803171F4A9019D
:100090004E7F63E0440F551F6A95E1F796812CE08F
:1000A00030E0291B3109240F351F37FF05C031957A
:1000B00021953109A1E001C0A0E0883211F082321F
:1000C00069F484818076803231F0803431F081119E
:1000D00005C0287F03C02C7F01C02E7FC90144E0EA
:1000E000969587954A95E1F76AE0689FA001699F18
:1000F000500D11242F70332760E872E0269FC00155
:10010000279F900D369F900D1124A11101C09E5F75
:100110009C01232F332726952695240F351FAA23CC
:1001200019F0319521953109C9018A5D9D4F8930BA
:10013000974010F020ED37E0C90108950F931F9309
:10014000CF93FB01518140E09081492B803171F4C4
:100150009A012E7FA3E0220F331FAA95E1F7968123
:100160004CE050E0491B5109420F531F57FF05C097
:10017000519541955109C1E001C0C0E0883211F0AC
:10018000823269F484818076803231F0803431F0BB
:10019000811105C0487F03C04C7F01C04E7F9A018A
:1001A00074E0369527957A95E1F7A0E1B7E20FD58F
:1001B0008B019C014F70552761E772E0469FC0019B
:1001C000479F900D569F900D1124080F191F211D58
:1001D000311DCC2339F030952095109501951F4F96
:1001E0002F4F3F4FB801C901CF911F910F91089533
:1001F000FF920F931F93CF93DF93062FF72EBC012F
:100200008EEB55D3C02FDF2D19E008D38993115001
:10021000E1F769E070E0802F9F2D19DF882311F04E
:1002200083E001C080E0DF91CF911F910F91FF909B
:1002300008950F931F93CF93DF93EC018B01B801C7
:100240008881EED2888381508D3F48F4F801808107
:10025000883239F0803129F0823289F702C081E09A
:1002600001C080E0DF91CF911F910F910895CF934E
:10027000DF93EC0163D2BE0184EB19D381E07CD221
:10028000C82F5CD281E0C11101C080E0DF91CF9125
:1002900008951F93CF93DF9300D0CDB7DEB7182F0B
:1002A00069837A834BD215D269817A81882341F0A0
:1002B00084E4113011F0FDD201C0F9D280E001C018
:1002C00082E00F900F90DF91CF911F91089581E010
:1002D00053D291E0811190E0892F0895BF92CF927F
:1002E000DF92EF92FF920F931F93CF93DF93CDB7DF
:1002F000DEB727970FB6F894DEBF0FBECDBF7B01E8
:10030000473008F45AC089312CEF92070CF455C0DD
:100310008031E7E29E070CF050C097FF06C0919530
:1003200081959109BB24B39401C0B12CCC24C39412
:10033000D12CCC0EDD1E86016AE070E068D4805DB1
:10034000F80181938F012E2F2C19862F972F1816C5
:10035000190694F3822F992787FD9095E1E0F0E04C
:10036000EC0FFD1FE80FF91FBB2029F03DE23083A1
:1003700090E03EE203C03BE2FACF982FF701E90F8D
:10038000F11DA1E0B0E0AC0FBD1FA20FB11D27FD14
:10039000BA958C918083892F8F5F215031F4F701BA
:1003A000E80FF11D30838F5FE8CF27FFE6CFF7011D
:1003B000E80FF11D108280E001C081E027960FB6A2
:1003C000F894DEBF0FBECDBFDF91CF911F910F918B
:1003D000FF90EF90DF90CF90BF900895DF92EF9263
:1003E000FF920F931F93CF93DF93CDB7DEB729977B
:1003F0000FB6F894DEBF0FBECDBF8C017B019ED13E
:10040000BE016F5F7F4FC801F3DED82E811109C096
:10041000BE016F5F7F4FF801808132DEF70191836B
:1004200080838D2D29960FB6F894DEBF0FBECDBF09
:10043000DF91CF911F910F91FF90EF90DF90089582
:10044000EF92FF920F931F93CF93DF93CDB7DEB759
:1004500029970FB6F894DEBF0FBECDBFE82E8B01F3
:10046000BE016F5F7F4F80E090E0C2DEF82E811109
:1004700008C0BE016F5F7F4F8E2D02DEF8019183B1
:1004800080838F2D29960FB6F894DEBF0FBECDBFA7
:10049000DF91CF911F910F91FF90EF900895DF9220
:1004A000EF92FF920F931F93CF93DF93CDB7DEB7F9
:1004B00029970FB6F894DEBF0FBECDBF8C017B012C
:1004C0003DD1BE016F5F7F4FC80192DED82E8111F2
:1004D0000BC0BE016F5F7F4FF80180812FDEF701F7
:1004E00060837183828393838D2D29960FB6F89450
:1004F000DEBF0FBECDBFDF91CF911F910F91FF9057
:10050000EF90DF900895EF92FF920F931F93CF9398
:10051000DF93CDB7DEB729970FB6F894DEBF0FBED5
:10052000CDBFE82E8B01BE016F5F7F4F80E090E072
:100530005FDEF82E81110AC0BE016F5F7F4F8E2DE6
:10054000FDDDF80160837183828393838F2D29966B
:100550000FB6F894DEBF0FBECDBFDF91CF911F91D4
:100560000F91FF90EF900895AF92BF92CF92DF92DC
:10057000EF92FF920F931F93CF93DF93CDB7DEB728
:100580006A970FB6F894DEBF0FBECDBF7A012A304E
:1005900008F48DC0613C2DEB720720EF82072FEF2E
:1005A00092070CF484C06038E6E97E07E8E98E071C
:1005B00091050CF07CC097FF0AC0909580957095CE
:1005C00061957F4F8F4F9F4FDD24D39401C0D12C75
:1005D0008E010F5F1F4FC02E28E0A22EB02EBC1838
:1005E0002AE030E040E050E047D32B8B3C8B4D8B32
:1005F0005E8B6F8B788F898F9A8FFE017396DE01E9
:100600001B968A2D01900D928A95E1F78F85805D6A
:10061000F80181938F012E2F2C196B857C858D8598
:100620009E851616170618061906C4F2822F8250E8
:10063000823048F4FE01E20FF11D27FDFA9580E3B8
:1006400081832B2D2E5F822F992787FD9095E1E0E6
:10065000F0E0EC0FFD1FE80FF91FDD2029F03DE26F
:10066000308390E03EE203C03BE2FACF982FF701DF
:10067000E90FF11DA1E0B0E0AC0FBD1FA20FB11D4D
:1006800027FDBA958C918083892F8F5F215023306D
:1006900031F4F701E80FF11D30838F5FE7CF27FFBB
:1006A000E5CFF701E80FF11D108280E001C081E085
:1006B0006A960FB6F894DEBF0FBECDBFDF91CF9123
:1006C0001F910F91FF90EF90DF90CF90BF90AF9070
:1006D000089586B381700895C09AB89A08951F93BB
:1006E000CF93DF931F92CDB7DEB71FB7F894C098B2
:1006F000B89A95E09A95F1F70000882311F0B89820
:10070000C09AE2E2EA95F1F700C0B09B80E0F2E720
:10071000FA95F1F700C0C09AB898662319F089835A
:10072000DBDF89811FBF9AE19A95F1F700C00F9036
:10073000DF91CF911F910895B8980895C098B89A05
:100740008FEB93E00197F1F700C000009FB7F8949A
:10075000B898C09AEAEAEA95F1F700C086B39FBF5D
:10076000EFE3F3E03197F1F700C00000B09B02C067
:100770008170089581E0089560E08170B0CFCF93DB
:10078000DF93C82FD8E08C2F8170F6DFC6958111DA
:10079000C068D150C1F78C2FDF91CF910895CF93CE
:1007A000DF93C82FD8E08C2F8170D13011F060E03A
:1007B00001C061E094DFC6958111C068D15099F7FE
:1007C0008C2FDF91CF910895EF92FF920F931F939B
:1007D000CF93DF93F82EEB01E42EB0DF209759F092
:1007E00085E5CDDF8E01085F1F4F8991C8DFC017F7
:1007F000D107D9F702C08CECC2DF8F2DEE2039F083
:10080000DF91CF911F910F91FF90EF90C8CFDF91B3
:10081000CF911F910F91FF90EF90B1CF8FEFAFCF9E
:10082000DF92EF92FF920F931F93CF93DF93E82E07
:10083000EB0184DF81112DC080EFA1DFF12C10E4EA
:1008400098EFD92ED10E81E097DF082F81E094DF59
:10085000882319F0002369F01FC001110AC01E157A
:1008600030F0888180FF05C0E11201C002C0F12E86
:1008700001E0802F81DF98819695011101C001C0B0
:100880009068988311501D11DECF21961111D8CF99
:1008900005C0FF24FA9402C08EEFF82E8F2DDF9151
:1008A000CF911F910F91FF90EF90DF90089540E05E
:1008B0008BCF41E089CFCF93DF93CDB7DEB7A09741
:1008C0000FB6F894DEBF0FBECDBF60E2CE01019639
:1008D000C8D0A0960FB6F894DEBF0FBECDBFDF9193
:1008E000CF91089560E288C0C29840E120E030E0F6
:1008F00097FF02C0C39A01C0C398220F331FB49957
:100900002160C59A880F991F00C00000C59841500A
:1009100079F7C29AC90108958CE287BB84E088BB4D
:100920008AE0EFE1FEE43197F1F700C0000081506A
:10093000C1F780EE90ECD8DF87ED90E8D5DF8BEA49
:1009400092ECD2DF81E89AECCFDF80E090EECCDF52
:1009500080E098ECC9DF87EF94ECC6CF477050E099
:100960005469637028E0629FB001112420E2829FE5
:10097000C00111249927682B792BCA01862B972B4C
:10098000B3CF8036910538F080342FE0920728F0FD
:100990008FE39FE002C080E690E0906AA5CF8739A0
:1009A00022E09207C8F09C0140E050E08831954178
:1009B00050F460E678EA80E090E05ED1C9010197EA
:1009C0008068966C08C06CEF72E485E090E032D1EC
:1009D000C9010197966C88CF0895877090E0986957
:1009E00020E1629FB00111247727862B972B7CCFC3
:1009F000C298B49BFECF0895FF920F931F93CF939D
:100A0000DF93182FF92E062F88E392E86DDFF0DFD1
:100A10008AEA98EB69DFECDF8AEA98EB65DFE8DFCA
:100A20008AEA98EB61DFE4DF8DE298EB5DDFE0DFDF
:100A300084ED98EB59DFC12FDF2D06C0D9DF299156
:100A4000822F90E0986B50DF8C2F811B8017B0F3C2
:100A5000CFDF88E092E8DF91CF911F910F91FF9057
:100A600043CFFF920F931F93CF93DF93182FF92E4D
:100A7000062F88EC92E838DF81E89AEC35DF83E8CE
:100A80009AEC32DFC12FDF2D05C0B2DF80E090EBA2
:100A90002BDF89938C2F811B8017B8F388E092E8B5
:100AA000DF91CF911F910F91FF901ECFCF93DF93D6
:100AB000CDB7DEB761970FB6F894DEBF0FBECDBFDE
:100AC00014BA8FEF85BBB99A19821A821B821C82D5
:100AD000FE01359687E0DF011D928A95E9F7198AB4
:100AE000188A1ADF80E296E04CDF44E061E084E09F
:100AF00035DF80E09BE453DF66E080E06EDF60E09E
:100B000070E081E0C6DB60E670E0EE24E394F12C57
:100B1000EC0EFD1EC701D6D000E010E0BE2CAF2CBD
:100B20009CE2E92EFF24F39428EEC22E23E0D22E7D
:100B300083B38D3331F083B38E3319F083B38C33A9
:100B4000A9F483B340E150E0BE01605F7F4F90E0C5
:100B5000D0D06FE670E08B2D9A2DA9D042E050E006
:100B6000BE01605F7F4F8B2D9A2DB3D0C801B701B6
:100B70003AD0892BA1F4ABDB811111C0BE01645FB7
:100B80007F4F88E2C0DC60E070E081E082DB6C8552
:100B90007D858E859F852AE04B2D5A2DE5DCC80189
:100BA0000196B60120D08C01EFECF7E03197F1F718
:100BB00000C000008B2D9A2D95DE8AE0AFECB7E0E7
:100BC0001197F1F700C000008150C1F7B1CFA29F8B
:100BD000B001B39FC001A39F01D0B29F700D811DD2
:100BE0001124911D0895AA1BBB1B51E107C0AA1F28
:100BF000BB1FA617B70710F0A61BB70B881F991FBE
:100C00005A95A9F780959095BC01CD01089597FB61
:100C1000072E16F4009406D077FD08D0E4DF07FC19
:100C200005D03EF4909581959F4F089570956195FC
:100C30007F4F0895A1E21A2EAA1BBB1BFD010DC018
:100C4000AA1FBB1FEE1FFF1FA217B307E407F5077C
:100C500020F0A21BB30BE40BF50B661F771F881F58
:100C6000991F1A9469F760957095809590959B01EE
:100C7000AC01BD01CF010895052E97FB16F4009439
:100C800006D057FD0CD0D6DF07FC09D07EF4909536
:100C90008095709561957F4F8F4F9F4F0895509528
:100CA0004095309521953F4F4F4F5F4F0895FB0181
:100CB000DC010D900020E9F7119701900D920020C2
:100CC000E1F70895FB01DC0101900D920020E1F7AE
:100CD0000895FB01DC010D900020E9F711974150C8
:100CE000504028F0019000200D92C9F708951C9201
:100CF0000895FB019F01E8944230BCF04532ACF40A
:100D00004A3029F497FB1EF4909581959F4F642FEC
:100D1000772769DF805D8A330CF0895D8193CB0191
:100D20000097A9F716F45DE251931082C90100C043
:100D3000DC01FC01672F71917723E1F7329704C042
:100D40007C916D9370836291AE17BF07C8F30895CD
:040D5000F894FFCF45
:100D5400696E697469616C697A6174696F6E002087
:020D640000008D
:00000001FF
